{"abi":[{"type":"constructor","inputs":[],"stateMutability":"nonpayable"},{"type":"function","name":"allMerkleRoots","inputs":[{"name":"","type":"uint256","internalType":"uint256"}],"outputs":[{"name":"","type":"bytes32","internalType":"bytes32"}],"stateMutability":"view"},{"type":"function","name":"batchVerify","inputs":[{"name":"tradeHashes","type":"bytes32[]","internalType":"bytes32[]"}],"outputs":[],"stateMutability":"nonpayable"},{"type":"function","name":"getMerkleRoot","inputs":[{"name":"root","type":"bytes32","internalType":"bytes32"}],"outputs":[{"name":"","type":"tuple","internalType":"struct TradeVerifier.MerkleRoot","components":[{"name":"root","type":"bytes32","internalType":"bytes32"},{"name":"timestamp","type":"uint256","internalType":"uint256"},{"name":"blockNumber","type":"uint256","internalType":"uint256"},{"name":"submitter","type":"address","internalType":"address"},{"name":"tradeCount","type":"uint256","internalType":"uint256"},{"name":"batchId","type":"string","internalType":"string"},{"name":"exists","type":"bool","internalType":"bool"}]}],"stateMutability":"view"},{"type":"function","name":"getMerkleRoots","inputs":[],"outputs":[{"name":"","type":"bytes32[]","internalType":"bytes32[]"}],"stateMutability":"view"},{"type":"function","name":"getStats","inputs":[],"outputs":[{"name":"totalVerifiedTrades","type":"uint256","internalType":"uint256"},{"name":"totalUsers","type":"uint256","internalType":"uint256"},{"name":"lastHash","type":"bytes32","internalType":"bytes32"},{"name":"lastTimestamp","type":"uint256","internalType":"uint256"}],"stateMutability":"view"},{"type":"function","name":"getTradeCount","inputs":[{"name":"user","type":"address","internalType":"address"}],"outputs":[{"name":"","type":"uint256","internalType":"uint256"}],"stateMutability":"view"},{"type":"function","name":"getTradeProof","inputs":[{"name":"tradeHash","type":"bytes32","internalType":"bytes32"}],"outputs":[{"name":"","type":"tuple","internalType":"struct TradeVerifier.TradeProof","components":[{"name":"tradeHash","type":"bytes32","internalType":"bytes32"},{"name":"timestamp","type":"uint256","internalType":"uint256"},{"name":"trader","type":"address","internalType":"address"},{"name":"blockNumber","type":"uint256","internalType":"uint256"},{"name":"previousHash","type":"bytes32","internalType":"bytes32"},{"name":"exists","type":"bool","internalType":"bool"}]}],"stateMutability":"view"},{"type":"function","name":"getUserTrades","inputs":[{"name":"user","type":"address","internalType":"address"},{"name":"offset","type":"uint256","internalType":"uint256"},{"name":"limit","type":"uint256","internalType":"uint256"}],"outputs":[{"name":"","type":"bytes32[]","internalType":"bytes32[]"}],"stateMutability":"view"},{"type":"function","name":"lastTradeHash","inputs":[],"outputs":[{"name":"","type":"bytes32","internalType":"bytes32"}],"stateMutability":"view"},{"type":"function","name":"lastTradeTimestamp","inputs":[],"outputs":[{"name":"","type":"uint256","internalType":"uint256"}],"stateMutability":"view"},{"type":"function","name":"leafToRoot","inputs":[{"name":"","type":"bytes32","internalType":"bytes32"}],"outputs":[{"name":"","type":"bytes32","internalType":"bytes32"}],"stateMutability":"view"},{"type":"function","name":"merkleRoots","inputs":[{"name":"","type":"bytes32","internalType":"bytes32"}],"outputs":[{"name":"root","type":"bytes32","internalType":"bytes32"},{"name":"timestamp","type":"uint256","internalType":"uint256"},{"name":"blockNumber","type":"uint256","internalType":"uint256"},{"name":"submitter","type":"address","internalType":"address"},{"name":"tradeCount","type":"uint256","internalType":"uint256"},{"name":"batchId","type":"string","internalType":"string"},{"name":"exists","type":"bool","internalType":"bool"}],"stateMutability":"view"},{"type":"function","name":"owner","inputs":[],"outputs":[{"name":"","type":"address","internalType":"address"}],"stateMutability":"view"},{"type":"function","name":"pause","inputs":[],"outputs":[],"stateMutability":"nonpayable"},{"type":"function","name":"paused","inputs":[],"outputs":[{"name":"","type":"bool","internalType":"bool"}],"stateMutability":"view"},{"type":"function","name":"proofs","inputs":[{"name":"","type":"bytes32","internalType":"bytes32"}],"outputs":[{"name":"tradeHash","type":"bytes32","internalType":"bytes32"},{"name":"timestamp","type":"uint256","internalType":"uint256"},{"name":"trader","type":"address","internalType":"address"},{"name":"blockNumber","type":"uint256","internalType":"uint256"},{"name":"previousHash","type":"bytes32","internalType":"bytes32"},{"name":"exists","type":"bool","internalType":"bool"}],"stateMutability":"view"},{"type":"function","name":"renounceOwnership","inputs":[],"outputs":[],"stateMutability":"nonpayable"},{"type":"function","name":"revokeTrade","inputs":[{"name":"tradeHash","type":"bytes32","internalType":"bytes32"}],"outputs":[],"stateMutability":"nonpayable"},{"type":"function","name":"submitMerkleRoot","inputs":[{"name":"root","type":"bytes32","internalType":"bytes32"},{"name":"tradeCount","type":"uint256","internalType":"uint256"},{"name":"batchId","type":"string","internalType":"string"}],"outputs":[],"stateMutability":"nonpayable"},{"type":"function","name":"totalMerkleBatches","inputs":[],"outputs":[{"name":"","type":"uint256","internalType":"uint256"}],"stateMutability":"view"},{"type":"function","name":"totalTrades","inputs":[],"outputs":[{"name":"","type":"uint256","internalType":"uint256"}],"stateMutability":"view"},{"type":"function","name":"totalUniqueUsers","inputs":[],"outputs":[{"name":"","type":"uint256","internalType":"uint256"}],"stateMutability":"view"},{"type":"function","name":"transferOwnership","inputs":[{"name":"newOwner","type":"address","internalType":"address"}],"outputs":[],"stateMutability":"nonpayable"},{"type":"function","name":"unpause","inputs":[],"outputs":[],"stateMutability":"nonpayable"},{"type":"function","name":"userTradeCount","inputs":[{"name":"","type":"address","internalType":"address"}],"outputs":[{"name":"","type":"uint256","internalType":"uint256"}],"stateMutability":"view"},{"type":"function","name":"userTrades","inputs":[{"name":"","type":"address","internalType":"address"},{"name":"","type":"uint256","internalType":"uint256"}],"outputs":[{"name":"","type":"bytes32","internalType":"bytes32"}],"stateMutability":"view"},{"type":"function","name":"verifyMerkleMultiProof","inputs":[{"name":"root","type":"bytes32","internalType":"bytes32"},{"name":"proof","type":"bytes32[]","internalType":"bytes32[]"},{"name":"proofFlags","type":"bool[]","internalType":"bool[]"},{"name":"tradeHashes","type":"bytes32[]","internalType":"bytes32[]"}],"outputs":[{"name":"","type":"bool","internalType":"bool"}],"stateMutability":"nonpayable"},{"type":"function","name":"verifyMerkleProof","inputs":[{"name":"root","type":"bytes32","internalType":"bytes32"},{"name":"proof","type":"bytes32[]","internalType":"bytes32[]"},{"name":"tradeHash","type":"bytes32","internalType":"bytes32"}],"outputs":[{"name":"","type":"bool","internalType":"bool"}],"stateMutability":"nonpayable"},{"type":"function","name":"verifyTrade","inputs":[{"name":"tradeHash","type":"bytes32","internalType":"bytes32"}],"outputs":[],"stateMutability":"nonpayable"},{"type":"event","name":"MerkleLeafVerified","inputs":[{"name":"root","type":"bytes32","indexed":true,"internalType":"bytes32"},{"name":"leaf","type":"bytes32","indexed":true,"internalType":"bytes32"},{"name":"verifier","type":"address","indexed":true,"internalType":"address"}],"anonymous":false},{"type":"event","name":"MerkleRootSubmitted","inputs":[{"name":"root","type":"bytes32","indexed":true,"internalType":"bytes32"},{"name":"submitter","type":"address","indexed":true,"internalType":"address"},{"name":"tradeCount","type":"uint256","indexed":false,"internalType":"uint256"},{"name":"batchId","type":"string","indexed":false,"internalType":"string"},{"name":"timestamp","type":"uint256","indexed":false,"internalType":"uint256"}],"anonymous":false},{"type":"event","name":"OwnershipTransferred","inputs":[{"name":"previousOwner","type":"address","indexed":true,"internalType":"address"},{"name":"newOwner","type":"address","indexed":true,"internalType":"address"}],"anonymous":false},{"type":"event","name":"Paused","inputs":[{"name":"account","type":"address","indexed":false,"internalType":"address"}],"anonymous":false},{"type":"event","name":"TradeBatchVerified","inputs":[{"name":"tradeHashes","type":"bytes32[]","indexed":false,"internalType":"bytes32[]"},{"name":"trader","type":"address","indexed":true,"internalType":"address"}],"anonymous":false},{"type":"event","name":"TradeRevoked","inputs":[{"name":"tradeHash","type":"bytes32","indexed":true,"internalType":"bytes32"},{"name":"admin","type":"address","indexed":true,"internalType":"address"}],"anonymous":false},{"type":"event","name":"TradeVerified","inputs":[{"name":"tradeHash","type":"bytes32","indexed":true,"internalType":"bytes32"},{"name":"trader","type":"address","indexed":true,"internalType":"address"},{"name":"timestamp","type":"uint256","indexed":false,"internalType":"uint256"}],"anonymous":false},{"type":"event","name":"Unpaused","inputs":[{"name":"account","type":"address","indexed":false,"internalType":"address"}],"anonymous":false},{"type":"error","name":"EnforcedPause","inputs":[]},{"type":"error","name":"ExpectedPause","inputs":[]},{"type":"error","name":"InvalidMerkleProof","inputs":[]},{"type":"error","name":"InvalidMerkleRoot","inputs":[]},{"type":"error","name":"InvalidTradeHash","inputs":[]},{"type":"error","name":"MerkleProofInvalidMultiproof","inputs":[]},{"type":"error","name":"MerkleRootAlreadySubmitted","inputs":[]},{"type":"error","name":"NoTradesToVerify","inputs":[]},{"type":"error","name":"OwnableInvalidOwner","inputs":[{"name":"owner","type":"address","internalType":"address"}]},{"type":"error","name":"OwnableUnauthorizedAccount","inputs":[{"name":"account","type":"address","internalType":"address"}]},{"type":"error","name":"ReentrancyGuardReentrantCall","inputs":[]},{"type":"error","name":"TradeAlreadyVerified","inputs":[]}],"bytecode":{"object":"0x6080806040523460955733156082575f8054336001600160a01b0319821681178355916001600160a01b03909116907f8be0079c531659141344cd1fd0a4f28419497f9722a3daafe3b4186f6b6457e09080a360017f9b779b17422d0df92223018b32b4d1fa46e071723d6817e2486d003becc55f0055611a73908161009a8239f35b631e4fbdf760e01b5f525f60045260245ffd5b5f80fdfe6080806040526004361015610012575f80fd5b5f3560e01c90816302b0bde81461143a575080630d3c63091461136a57806316187a4814611178578063178f99931461115b57806319f18dee1461113e5780631e5cc5f114610dfd57806335f0dced14610cdd5780633a8f549e14610ca55780633f4ba83a14610c39578063444d95b014610bcb5780634611f22314610bae5780635c975abb14610b8a5780635e7f18af14610b5e578063715018a614610b075780637a1e527114610a155780638456cb59146109b557806385135a1a146109315780638da5cb5b1461090a578063a7206cd6146107c9578063b1b1ffab14610771578063bc29bd6014610754578063c54de4e91461072a578063c59d4847146106f4578063c8fa6157146104c1578063e275c997146104a4578063f2fde38b1461041f578063f62e18ab1461025e578063fe14bab0146101f05763fe5a53771461015b575f80fd5b346101ec5760203660031901126101ec576004355f52600560205260405f2080546001820154916101e060028201549160018060a01b0360038201541660048201549060ff60066101ae600586016115b5565b94015416946040519788978852602088015260408701526060860152608085015260e060a085015260e08401906114ed565b90151560c08301520390f35b5f80fd5b346101ec5760203660031901126101ec576004356006548110156101ec5760065481101561024a5760065f527ff652222313e28459528d920b65115c16c04f3efc82aaedc97be59f3f377c0d3f0154604051908152602090f35b634e487b7160e01b5f52603260045260245ffd5b346101ec5760203660031901126101ec5760043561027a611887565b61028261186a565b801561041057805f52600160205260ff600560405f2001541661040157335f52600460205260ff60405f205416156103d7575b6103546008546005604051916102ca83611579565b84835260208301904282526040840133815260608501904382526080860192835260a086019360018552885f52600160205260405f209651875551600187015560018060a01b03905116600286019060018060a01b03166001600160601b0360a01b82541617905551600385015551600484015551151591019060ff801983541691151516179055565b335f5260026020526103698160405f20611754565b335f52600360205260405f2061037f815461177a565b90558060085542600955610394600a5461177a565b600a55604051904282527f5c987331224effc0e6fe8ddfb21de46ce54c656bfe6ed3c0e69a7a9e4895b1a460203393a360015f516020611a1e5f395f51905f5255005b335f52600460205260405f20600160ff198254161790556103f9600b5461177a565b600b556102b5565b631194ec4760e11b5f5260045ffd5b6362b1bedf60e11b5f5260045ffd5b346101ec5760203660031901126101ec5761043861146e565b610440611844565b6001600160a01b03168015610491575f80546001600160a01b03198116831782556001600160a01b0316907f8be0079c531659141344cd1fd0a4f28419497f9722a3daafe3b4186f6b6457e09080a3005b631e4fbdf760e01b5f525f60045260245ffd5b346101ec575f3660031901126101ec576020600a54604051908152f35b346101ec5760203660031901126101ec576004356001600160401b0381116101ec576104f1903690600401611484565b6104f9611887565b61050161186a565b80156106e557335f52600460205260ff60405f205416156106bb575b5f5f5b8281106105a65750335f52600360205261053f60405f20918254611788565b9055604051602080825281018290526001600160fb1b0382116101ec577f4571d0946fe003029f810442d93a36f297584173bab1d3079a6c86af9b0282839160051b8093604083013760408133948101030190a260015f516020611a1e5f395f51905f5255005b6105b18184866116be565b35801515806106a1575b6105c9575b50600101610520565b6001919261069a9161066b6008546005604051916105e683611579565b84835260208301904282526040840133815260608501904382526080860192835260a08601938b8552885f528b60205260405f2096518755518b8701558a8060a01b0390511660028601908b8060a01b03166001600160601b0360a01b82541617905551600385015551600484015551151591019060ff801983541691151516179055565b335f5260026020526106808160405f20611754565b60085542600955610692600a5461177a565b600a5561177a565b91906105c0565b50805f52600160205260ff600560405f20015416156105bb565b335f52600460205260405f20600160ff198254161790556106dd600b5461177a565b600b5561051d565b63cca1f0b160e01b5f5260045ffd5b346101ec575f3660031901126101ec576080600a54600b5460085460095491604051938452602084015260408301526060820152f35b346101ec5760203660031901126101ec576004355f526007602052602060405f2054604051908152f35b346101ec575f3660031901126101ec576020600854604051908152f35b346101ec5760403660031901126101ec5761078a61146e565b6001600160a01b03165f908152600260205260409020805460243591908210156101ec576020916107ba91611511565b90549060031b1c604051908152f35b346101ec5760203660031901126101ec576004355f60c06040516107ec8161155e565b828152826020820152826040820152826060820152826080820152606060a08201520152805f52600560205260ff600660405f20015416156108fb575f52600560205260405f2060405161083f8161155e565b8154815260018201546020820190815260028301546040830190815260038401546001600160a01b031660608401908152600485015460808501908152929491926108ee929160ff6006610895600586016115b5565b9460a089019586520154169460c0870195151586526040519788976020895251602089015251604088015251606087015260018060a01b0390511660808601525160a08501525160e060c08501526101008401906114ed565b9051151560e08301520390f35b639dd854d360e01b5f5260045ffd5b346101ec575f3660031901126101ec575f546040516001600160a01b039091168152602090f35b346101ec575f3660031901126101ec5760405180602060065491828152019060065f527ff652222313e28459528d920b65115c16c04f3efc82aaedc97be59f3f377c0d3f905f5b81811061099f5761099b8561098f81870382611594565b604051918291826114b4565b0390f35b8254845260209093019260019283019201610978565b346101ec575f3660031901126101ec576109cd611844565b6109d561186a565b5f805460ff60a01b1916600160a01b1790556040513381527f62e78cea01bee320cd4e420270b5ea74000d11b0c9f74754ebdbfc544b05a25890602090a1005b346101ec5760203660031901126101ec576004355f60a0604051610a3881611579565b8281528260208201528260408201528260608201528260808201520152805f52600160205260ff600560405f2001541615610410575f52600160205260c060405f20604051610a8681611579565b81549182825260018101546020830190815260018060a01b03600283015416604084019081526003830154916060850192835260a060ff6005600487015496608089019788520154169501941515855260405195865251602086015260018060a01b03905116604085015251606084015251608083015251151560a0820152f35b346101ec575f3660031901126101ec57610b1f611844565b5f80546001600160a01b0319811682556001600160a01b03167f8be0079c531659141344cd1fd0a4f28419497f9722a3daafe3b4186f6b6457e08280a3005b346101ec5760603660031901126101ec5761099b61098f610b7d61146e565b6044359060243590611795565b346101ec575f3660031901126101ec57602060ff5f5460a01c166040519015158152f35b346101ec575f3660031901126101ec576020600c54604051908152f35b346101ec5760203660031901126101ec576004355f52600160205260c060405f2080549060018101549060018060a01b0360028201541660038201549060ff6005600485015494015416936040519586526020860152604085015260608401526080830152151560a0820152f35b346101ec575f3660031901126101ec57610c51611844565b5f5460ff8160a01c1615610c965760ff60a01b19165f556040513381527f5db9ee0a495bf2e6ff9c91a7834c1ba4fdd244a5e8aa4e537bd38aeae4b073aa90602090a1005b638dfc202b60e01b5f5260045ffd5b346101ec5760203660031901126101ec576001600160a01b03610cc661146e565b165f526002602052602060405f2054604051908152f35b346101ec5760603660031901126101ec576004356024356001600160401b0381116101ec57610d10903690600401611484565b90825f52600560205260ff600660405f20015416156108fb57610d6390610d546040516020810190604435825260208152610d4c604082611594565b5190206116ce565b60208151910120923691611708565b5f92825b8251851015610d8f57610d87600191610d8087866116f4565b51906119fc565b940193610d67565b81849103610dee57602091815f526007835260405f205415610ddc575b6040519133917f15489fc09d672786e14f184453f1638c1af8fcdfa5215efe38b21c58e85406ef5f80a460018152f35b815f52600783528060405f2055610dac565b63582f497d60e11b5f5260045ffd5b346101ec5760603660031901126101ec576044356004356024356001600160401b0383116101ec57366023840112156101ec578260040135906001600160401b0382116101ec57602484019360248336920101116101ec57610e5d611844565b610e6561186a565b82156108fb57825f52600560205260ff600660405f2001541661112f5780156106e55760405193610e958561155e565b83855260208501944286526040810195438752606082019633885260808301858152601f19601f8801169860405192610ed160208c0185611594565b888452888760208601375f60208a8601015260a0860193845260c0860194600186528a5f52600560205260405f209651875551600187015551600286015560018060a01b03905116600385019060018060a01b03166001600160601b0360a01b8254161790555160048401556005830190518051906001600160401b03821161105457610f5e8354611526565b601f81116110de575b50602090601f831160011461107357918060069492610fb39796945f92611068575b50508160011b915f199060031b1c19161790555b51151591019060ff801983541691151516179055565b60065490600160401b82101561105457837f608a838c0459519c7d15fc222cd914844729adab4f78fc96ccaa069568299ba094608092876110166110008760015f99016006556006611511565b819391549060031b91821b915f19901b19161790565b9055611023600c5461177a565b600c5560405195865260606020870152816060870152838601378301015242604082015260808133958101030190a3005b634e487b7160e01b5f52604160045260245ffd5b015190508c80610f89565b90601f19831691845f52815f20925f5b8181106110c65750926001928592610fb399989660069896106110ae575b505050811b019055610f9d565b01515f1960f88460031b161c191690558c80806110a1565b92936020600181928786015181550195019301611083565b82811115610f6757835f5260205f20601f840160051c9060208510611127575b81601f9101920160051c03905f5b82811061111a575050610f67565b5f8282015560010161110c565b5f91506110fe565b6351a2015960e11b5f5260045ffd5b346101ec575f3660031901126101ec576020600954604051908152f35b346101ec575f3660031901126101ec576020600b54604051908152f35b346101ec5760803660031901126101ec576004356024356001600160401b0381116101ec576111ab903690600401611484565b906044356001600160401b0381116101ec576111cb903690600401611484565b90916064356001600160401b0381116101ec576111ec903690600401611484565b9490865f52600560205260ff600660405f20015416156108fb5761120f8661168c565b955f5b8181106113275750505090611228913691611708565b9061123281611675565b926112406040519485611594565b818452602084019160051b8101903682116101ec57918693918693915b818310611301575050509261127292936118bf565b03610dee575f5b81518110156112f6578061128f600192846116f4565b515f52600760205260405f2054156112d9575b336112ad82856116f4565b51857f15489fc09d672786e14f184453f1638c1af8fcdfa5215efe38b21c58e85406ef5f80a401611279565b6112e381846116f4565b515f5260076020528360405f20556112a2565b602060405160018152f35b919350919350823580151581036101ec578160209291839252019201869391869361125d565b8061135261133860019385876116be565b356040516020810191825260208152610d4c604082611594565b60208151910120611363828b6116f4565b5201611212565b346101ec5760203660031901126101ec57600435611386611844565b805f52600160205260ff600560405f2001541615610410575f81815260016020908152604080832060058101805460ff19169055600201546001600160a01b031680845260039092529091205461141d575b50600a548061140b575b5033907f64f22897ebaebcd39331fe5d8a1b2a4b2c821168ed20e57dc403e1f324bd6df85f80a3005b61141490611655565b600a55816113e2565b5f52600360205260405f206114328154611655565b9055816113d8565b346101ec5760203660031901126101ec576020906001600160a01b0361145e61146e565b165f526003825260405f20548152f35b600435906001600160a01b03821682036101ec57565b9181601f840112156101ec578235916001600160401b0383116101ec576020808501948460051b0101116101ec57565b60206040818301928281528451809452019201905f5b8181106114d75750505090565b82518452602093840193909201916001016114ca565b805180835260209291819084018484015e5f828201840152601f01601f1916010190565b805482101561024a575f5260205f2001905f90565b90600182811c92168015611554575b602083101461154057565b634e487b7160e01b5f52602260045260245ffd5b91607f1691611535565b60e081019081106001600160401b0382111761105457604052565b60c081019081106001600160401b0382111761105457604052565b90601f801991011681019081106001600160401b0382111761105457604052565b9060405191825f8254926115c884611526565b808452936001811690811561163357506001146115ef575b506115ed92500383611594565b565b90505f9291925260205f20905f915b8183106116175750509060206115ed928201015f6115e0565b60209193508060019154838589010152019101909184926115fe565b9050602092506115ed94915060ff191682840152151560051b8201015f6115e0565b8015611661575f190190565b634e487b7160e01b5f52601160045260245ffd5b6001600160401b0381116110545760051b60200190565b9061169682611675565b6116a36040519182611594565b82815280926116b4601f1991611675565b0190602036910137565b919081101561024a5760051b0190565b90604051916020830152602082526115ed604083611594565b80511561024a5760200190565b805182101561024a5760209160051b010190565b92919061171481611675565b936117226040519586611594565b602085838152019160051b81019283116101ec57905b82821061174457505050565b8135815260209182019101611738565b805490600160401b821015611054578161100091600161177694018155611511565b9055565b5f1981146116615760010190565b9190820180921161166157565b6001600160a01b03165f908152600260205260409020805491929091908184101561182857816117c58286611788565b1115611820575082810390811161166157905b6117e18261168c565b925f5b8381106117f2575050505090565b8061180861180260019385611788565b85611511565b90549060031b1c61181982886116f4565b52016117e4565b9050906117d8565b5050505060405161183a602082611594565b5f81525f36813790565b5f546001600160a01b0316330361185757565b63118cdaa760e01b5f523360045260245ffd5b60ff5f5460a01c1661187857565b63d93c066560e01b5f5260045ffd5b60025f516020611a1e5f395f51905f5254146118b05760025f516020611a1e5f395f51905f5255565b633ee5aeb560e01b5f5260045ffd5b908251918151936118d1825185611788565b6001860190818711611661570361191f576118eb8561168c565b935f5f945f955f5b89811061194f5750508715915061192e9050575050510361191f5761191b915f1901906116f4565b5190565b631a8a024960e11b5f5260045ffd5b909450909250159050611945575061191b906116e7565b61191b91506116e7565b600190858510156119e0576119a36119706119698761177a565b96896116f4565b515b61197c83876116f4565b51156119cd57878710156119b457610d806119968861177a565b978a6116f4565b906119fc565b6119ad828c6116f4565b52016118f3565b6119c76119c08661177a565b958d6116f4565b5161199d565b610d806119d98c61177a565b9b8b6116f4565b6119a36119f66119ef8561177a565b948c6116f4565b51611972565b81811015611a10575f5260205260405f2090565b905f5260205260405f209056fe9b779b17422d0df92223018b32b4d1fa46e071723d6817e2486d003becc55f00a264697066735822122054dcdd60b8dad03f76341f0490cd87ba174a813aff133e7cef050639b510dc3264736f6c63430008210033","linkReferences":{}},"methodIdentifiers":{"allMerkleRoots(uint256)":"fe14bab0","batchVerify(bytes32[])":"c8fa6157","getMerkleRoot(bytes32)":"a7206cd6","getMerkleRoots()":"85135a1a","getStats()":"c59d4847","getTradeCount(address)":"3a8f549e","getTradeProof(bytes32)":"7a1e5271","getUserTrades(address,uint256,uint256)":"5e7f18af","lastTradeHash()":"bc29bd60","lastTradeTimestamp()":"19f18dee","leafToRoot(bytes32)":"c54de4e9","merkleRoots(bytes32)":"fe5a5377","owner()":"8da5cb5b","pause()":"8456cb59","paused()":"5c975abb","proofs(bytes32)":"444d95b0","renounceOwnership()":"715018a6","revokeTrade(bytes32)":"0d3c6309","submitMerkleRoot(bytes32,uint256,string)":"1e5cc5f1","totalMerkleBatches()":"4611f223","totalTrades()":"e275c997","totalUniqueUsers()":"178f9993","transferOwnership(address)":"f2fde38b","unpause()":"3f4ba83a","userTradeCount(address)":"02b0bde8","userTrades(address,uint256)":"b1b1ffab","verifyMerkleMultiProof(bytes32,bytes32[],bool[],bytes32[])":"16187a48","verifyMerkleProof(bytes32,bytes32[],bytes32)":"35f0dced","verifyTrade(bytes32)":"f62e18ab"},"id":29}