{"abi":[{"type":"constructor","inputs":[],"stateMutability":"nonpayable"},{"type":"function","name":"allMerkleRoots","inputs":[{"name":"","type":"uint256","internalType":"uint256"}],"outputs":[{"name":"","type":"bytes32","internalType":"bytes32"}],"stateMutability":"view"},{"type":"function","name":"batchVerify","inputs":[{"name":"tradeHashes","type":"bytes32[]","internalType":"bytes32[]"},{"name":"trader","type":"address","internalType":"address"}],"outputs":[],"stateMutability":"nonpayable"},{"type":"function","name":"getMerkleRoot","inputs":[{"name":"root","type":"bytes32","internalType":"bytes32"}],"outputs":[{"name":"","type":"tuple","internalType":"struct TradeVerifier.MerkleRoot","components":[{"name":"root","type":"bytes32","internalType":"bytes32"},{"name":"timestamp","type":"uint256","internalType":"uint256"},{"name":"blockNumber","type":"uint256","internalType":"uint256"},{"name":"submitter","type":"address","internalType":"address"},{"name":"tradeCount","type":"uint256","internalType":"uint256"},{"name":"batchId","type":"string","internalType":"string"},{"name":"exists","type":"bool","internalType":"bool"}]}],"stateMutability":"view"},{"type":"function","name":"getMerkleRoots","inputs":[],"outputs":[{"name":"","type":"bytes32[]","internalType":"bytes32[]"}],"stateMutability":"view"},{"type":"function","name":"getStats","inputs":[],"outputs":[{"name":"totalVerifiedTrades","type":"uint256","internalType":"uint256"},{"name":"totalUsers","type":"uint256","internalType":"uint256"},{"name":"lastHash","type":"bytes32","internalType":"bytes32"},{"name":"lastTimestamp","type":"uint256","internalType":"uint256"}],"stateMutability":"view"},{"type":"function","name":"getTradeCount","inputs":[{"name":"user","type":"address","internalType":"address"}],"outputs":[{"name":"","type":"uint256","internalType":"uint256"}],"stateMutability":"view"},{"type":"function","name":"getTradeProof","inputs":[{"name":"tradeHash","type":"bytes32","internalType":"bytes32"}],"outputs":[{"name":"","type":"tuple","internalType":"struct TradeVerifier.TradeProof","components":[{"name":"tradeHash","type":"bytes32","internalType":"bytes32"},{"name":"timestamp","type":"uint256","internalType":"uint256"},{"name":"trader","type":"address","internalType":"address"},{"name":"blockNumber","type":"uint256","internalType":"uint256"},{"name":"previousHash","type":"bytes32","internalType":"bytes32"},{"name":"exists","type":"bool","internalType":"bool"}]}],"stateMutability":"view"},{"type":"function","name":"getUserTrades","inputs":[{"name":"user","type":"address","internalType":"address"},{"name":"offset","type":"uint256","internalType":"uint256"},{"name":"limit","type":"uint256","internalType":"uint256"}],"outputs":[{"name":"","type":"bytes32[]","internalType":"bytes32[]"}],"stateMutability":"view"},{"type":"function","name":"lastTradeHash","inputs":[],"outputs":[{"name":"","type":"bytes32","internalType":"bytes32"}],"stateMutability":"view"},{"type":"function","name":"lastTradeTimestamp","inputs":[],"outputs":[{"name":"","type":"uint256","internalType":"uint256"}],"stateMutability":"view"},{"type":"function","name":"leafToRoot","inputs":[{"name":"","type":"bytes32","internalType":"bytes32"}],"outputs":[{"name":"","type":"bytes32","internalType":"bytes32"}],"stateMutability":"view"},{"type":"function","name":"merkleRoots","inputs":[{"name":"","type":"bytes32","internalType":"bytes32"}],"outputs":[{"name":"root","type":"bytes32","internalType":"bytes32"},{"name":"timestamp","type":"uint256","internalType":"uint256"},{"name":"blockNumber","type":"uint256","internalType":"uint256"},{"name":"submitter","type":"address","internalType":"address"},{"name":"tradeCount","type":"uint256","internalType":"uint256"},{"name":"batchId","type":"string","internalType":"string"},{"name":"exists","type":"bool","internalType":"bool"}],"stateMutability":"view"},{"type":"function","name":"owner","inputs":[],"outputs":[{"name":"","type":"address","internalType":"address"}],"stateMutability":"view"},{"type":"function","name":"pause","inputs":[],"outputs":[],"stateMutability":"nonpayable"},{"type":"function","name":"paused","inputs":[],"outputs":[{"name":"","type":"bool","internalType":"bool"}],"stateMutability":"view"},{"type":"function","name":"proofs","inputs":[{"name":"","type":"bytes32","internalType":"bytes32"}],"outputs":[{"name":"tradeHash","type":"bytes32","internalType":"bytes32"},{"name":"timestamp","type":"uint256","internalType":"uint256"},{"name":"trader","type":"address","internalType":"address"},{"name":"blockNumber","type":"uint256","internalType":"uint256"},{"name":"previousHash","type":"bytes32","internalType":"bytes32"},{"name":"exists","type":"bool","internalType":"bool"}],"stateMutability":"view"},{"type":"function","name":"renounceOwnership","inputs":[],"outputs":[],"stateMutability":"nonpayable"},{"type":"function","name":"revokeTrade","inputs":[{"name":"tradeHash","type":"bytes32","internalType":"bytes32"}],"outputs":[],"stateMutability":"nonpayable"},{"type":"function","name":"submitMerkleRoot","inputs":[{"name":"root","type":"bytes32","internalType":"bytes32"},{"name":"tradeCount","type":"uint256","internalType":"uint256"},{"name":"batchId","type":"string","internalType":"string"}],"outputs":[],"stateMutability":"nonpayable"},{"type":"function","name":"totalMerkleBatches","inputs":[],"outputs":[{"name":"","type":"uint256","internalType":"uint256"}],"stateMutability":"view"},{"type":"function","name":"totalTrades","inputs":[],"outputs":[{"name":"","type":"uint256","internalType":"uint256"}],"stateMutability":"view"},{"type":"function","name":"totalUniqueUsers","inputs":[],"outputs":[{"name":"","type":"uint256","internalType":"uint256"}],"stateMutability":"view"},{"type":"function","name":"transferOwnership","inputs":[{"name":"newOwner","type":"address","internalType":"address"}],"outputs":[],"stateMutability":"nonpayable"},{"type":"function","name":"unpause","inputs":[],"outputs":[],"stateMutability":"nonpayable"},{"type":"function","name":"userTradeCount","inputs":[{"name":"","type":"address","internalType":"address"}],"outputs":[{"name":"","type":"uint256","internalType":"uint256"}],"stateMutability":"view"},{"type":"function","name":"userTrades","inputs":[{"name":"","type":"address","internalType":"address"},{"name":"","type":"uint256","internalType":"uint256"}],"outputs":[{"name":"","type":"bytes32","internalType":"bytes32"}],"stateMutability":"view"},{"type":"function","name":"verifyMerkleMultiProof","inputs":[{"name":"root","type":"bytes32","internalType":"bytes32"},{"name":"proof","type":"bytes32[]","internalType":"bytes32[]"},{"name":"proofFlags","type":"bool[]","internalType":"bool[]"},{"name":"tradeHashes","type":"bytes32[]","internalType":"bytes32[]"}],"outputs":[{"name":"","type":"bool","internalType":"bool"}],"stateMutability":"nonpayable"},{"type":"function","name":"verifyMerkleProof","inputs":[{"name":"root","type":"bytes32","internalType":"bytes32"},{"name":"proof","type":"bytes32[]","internalType":"bytes32[]"},{"name":"tradeHash","type":"bytes32","internalType":"bytes32"}],"outputs":[{"name":"","type":"bool","internalType":"bool"}],"stateMutability":"nonpayable"},{"type":"function","name":"verifyTrade","inputs":[{"name":"tradeHash","type":"bytes32","internalType":"bytes32"},{"name":"trader","type":"address","internalType":"address"}],"outputs":[],"stateMutability":"nonpayable"},{"type":"event","name":"MerkleLeafVerified","inputs":[{"name":"root","type":"bytes32","indexed":true,"internalType":"bytes32"},{"name":"leaf","type":"bytes32","indexed":true,"internalType":"bytes32"},{"name":"verifier","type":"address","indexed":true,"internalType":"address"}],"anonymous":false},{"type":"event","name":"MerkleRootSubmitted","inputs":[{"name":"root","type":"bytes32","indexed":true,"internalType":"bytes32"},{"name":"submitter","type":"address","indexed":true,"internalType":"address"},{"name":"tradeCount","type":"uint256","indexed":false,"internalType":"uint256"},{"name":"batchId","type":"string","indexed":false,"internalType":"string"},{"name":"timestamp","type":"uint256","indexed":false,"internalType":"uint256"}],"anonymous":false},{"type":"event","name":"OwnershipTransferred","inputs":[{"name":"previousOwner","type":"address","indexed":true,"internalType":"address"},{"name":"newOwner","type":"address","indexed":true,"internalType":"address"}],"anonymous":false},{"type":"event","name":"Paused","inputs":[{"name":"account","type":"address","indexed":false,"internalType":"address"}],"anonymous":false},{"type":"event","name":"TradeBatchVerified","inputs":[{"name":"tradeHashes","type":"bytes32[]","indexed":false,"internalType":"bytes32[]"},{"name":"trader","type":"address","indexed":true,"internalType":"address"}],"anonymous":false},{"type":"event","name":"TradeRevoked","inputs":[{"name":"tradeHash","type":"bytes32","indexed":true,"internalType":"bytes32"},{"name":"admin","type":"address","indexed":true,"internalType":"address"}],"anonymous":false},{"type":"event","name":"TradeVerified","inputs":[{"name":"tradeHash","type":"bytes32","indexed":true,"internalType":"bytes32"},{"name":"trader","type":"address","indexed":true,"internalType":"address"},{"name":"timestamp","type":"uint256","indexed":false,"internalType":"uint256"}],"anonymous":false},{"type":"event","name":"Unpaused","inputs":[{"name":"account","type":"address","indexed":false,"internalType":"address"}],"anonymous":false},{"type":"error","name":"EnforcedPause","inputs":[]},{"type":"error","name":"ExpectedPause","inputs":[]},{"type":"error","name":"InvalidMerkleProof","inputs":[]},{"type":"error","name":"InvalidMerkleRoot","inputs":[]},{"type":"error","name":"InvalidTradeHash","inputs":[]},{"type":"error","name":"MerkleProofInvalidMultiproof","inputs":[]},{"type":"error","name":"MerkleRootAlreadySubmitted","inputs":[]},{"type":"error","name":"NoTradesToVerify","inputs":[]},{"type":"error","name":"OwnableInvalidOwner","inputs":[{"name":"owner","type":"address","internalType":"address"}]},{"type":"error","name":"OwnableUnauthorizedAccount","inputs":[{"name":"account","type":"address","internalType":"address"}]},{"type":"error","name":"ReentrancyGuardReentrantCall","inputs":[]},{"type":"error","name":"TradeAlreadyVerified","inputs":[]}],"bytecode":{"object":"0x6080806040523460955733156082575f8054336001600160a01b0319821681178355916001600160a01b03909116907f8be0079c531659141344cd1fd0a4f28419497f9722a3daafe3b4186f6b6457e09080a360017f9b779b17422d0df92223018b32b4d1fa46e071723d6817e2486d003becc55f0055611b03908161009a8239f35b631e4fbdf760e01b5f525f60045260245ffd5b5f80fdfe6080806040526004361015610012575f80fd5b5f3560e01c90816302b0bde8146114b4575080630d3c6309146113e457806316187a48146111f2578063178f9993146111d557806319f18dee146111b85780631e5cc5f114610e7757806335f0dced14610d575780633a8f549e14610d1f5780633aab10af14610acd5780633f4ba83a14610a61578063444d95b0146109f35780634611f223146109d65780635c975abb146109b25780635e7f18af14610986578063715018a61461092f5780637a1e52711461083d5780638456cb59146107dd57806385135a1a146107595780638da5cb5b14610732578063a7206cd6146105f1578063b1b1ffab14610599578063bc29bd601461057c578063c54de4e914610552578063c59d48471461051c578063e0d6aa3814610300578063e275c997146102e3578063f2fde38b1461025e578063fe14bab0146101f05763fe5a53771461015b575f80fd5b346101ec5760203660031901126101ec576004355f52600560205260405f2080546001820154916101e060028201549160018060a01b0360038201541660048201549060ff60066101ae60058601611645565b94015416946040519788978852602088015260408701526060860152608085015260e060a085015260e084019061157d565b90151560c08301520390f35b5f80fd5b346101ec5760203660031901126101ec576004356006548110156101ec5760065481101561024a5760065f527ff652222313e28459528d920b65115c16c04f3efc82aaedc97be59f3f377c0d3f0154604051908152602090f35b634e487b7160e01b5f52603260045260245ffd5b346101ec5760203660031901126101ec576102776114e8565b61027f6118d4565b6001600160a01b031680156102d0575f80546001600160a01b03198116831782556001600160a01b0316907f8be0079c531659141344cd1fd0a4f28419497f9722a3daafe3b4186f6b6457e09080a3005b631e4fbdf760e01b5f525f60045260245ffd5b346101ec575f3660031901126101ec576020600a54604051908152f35b346101ec5760403660031901126101ec5760043561031c6114fe565b6103246118d4565b61032c611917565b6103346118fa565b811561050d57815f52600160205260ff600560405f200154166104fe576001600160a01b03169081156104c057815f52600460205260ff60405f20541615610496575b61041660085460056040519161038c83611609565b84835260208301904282526040840187815260608501904382526080860192835260a086019360018552885f52600160205260405f209651875551600187015560018060a01b03905116600286019060018060a01b03166001600160601b0360a01b82541617905551600385015551600484015551151591019060ff801983541691151516179055565b815f52600260205261042b8160405f206117e4565b815f52600360205260405f20610441815461180a565b90558060085542600955610456600a5461180a565b600a557f5c987331224effc0e6fe8ddfb21de46ce54c656bfe6ed3c0e69a7a9e4895b1a46020604051428152a360015f516020611aae5f395f51905f5255005b815f52600460205260405f20600160ff198254161790556104b8600b5461180a565b600b55610377565b60405162461bcd60e51b8152602060048201526016602482015275496e76616c696420747261646572206164647265737360501b6044820152606490fd5b631194ec4760e11b5f5260045ffd5b6362b1bedf60e11b5f5260045ffd5b346101ec575f3660031901126101ec576080600a54600b5460085460095491604051938452602084015260408301526060820152f35b346101ec5760203660031901126101ec576004355f526007602052602060405f2054604051908152f35b346101ec575f3660031901126101ec576020600854604051908152f35b346101ec5760403660031901126101ec576105b26114e8565b6001600160a01b03165f908152600260205260409020805460243591908210156101ec576020916105e2916115a1565b90549060031b1c604051908152f35b346101ec5760203660031901126101ec576004355f60c0604051610614816115ee565b828152826020820152826040820152826060820152826080820152606060a08201520152805f52600560205260ff600660405f2001541615610723575f52600560205260405f20604051610667816115ee565b8154815260018201546020820190815260028301546040830190815260038401546001600160a01b03166060840190815260048501546080850190815292949192610716929160ff60066106bd60058601611645565b9460a089019586520154169460c0870195151586526040519788976020895251602089015251604088015251606087015260018060a01b0390511660808601525160a08501525160e060c085015261010084019061157d565b9051151560e08301520390f35b639dd854d360e01b5f5260045ffd5b346101ec575f3660031901126101ec575f546040516001600160a01b039091168152602090f35b346101ec575f3660031901126101ec5760405180602060065491828152019060065f527ff652222313e28459528d920b65115c16c04f3efc82aaedc97be59f3f377c0d3f905f5b8181106107c7576107c3856107b781870382611624565b60405191829182611544565b0390f35b82548452602090930192600192830192016107a0565b346101ec575f3660031901126101ec576107f56118d4565b6107fd6118fa565b5f805460ff60a01b1916600160a01b1790556040513381527f62e78cea01bee320cd4e420270b5ea74000d11b0c9f74754ebdbfc544b05a25890602090a1005b346101ec5760203660031901126101ec576004355f60a060405161086081611609565b8281528260208201528260408201528260608201528260808201520152805f52600160205260ff600560405f200154161561050d575f52600160205260c060405f206040516108ae81611609565b81549182825260018101546020830190815260018060a01b03600283015416604084019081526003830154916060850192835260a060ff6005600487015496608089019788520154169501941515855260405195865251602086015260018060a01b03905116604085015251606084015251608083015251151560a0820152f35b346101ec575f3660031901126101ec576109476118d4565b5f80546001600160a01b0319811682556001600160a01b03167f8be0079c531659141344cd1fd0a4f28419497f9722a3daafe3b4186f6b6457e08280a3005b346101ec5760603660031901126101ec576107c36107b76109a56114e8565b6044359060243590611825565b346101ec575f3660031901126101ec57602060ff5f5460a01c166040519015158152f35b346101ec575f3660031901126101ec576020600c54604051908152f35b346101ec5760203660031901126101ec576004355f52600160205260c060405f2080549060018101549060018060a01b0360028201541660038201549060ff6005600485015494015416936040519586526020860152604085015260608401526080830152151560a0820152f35b346101ec575f3660031901126101ec57610a796118d4565b5f5460ff8160a01c1615610abe5760ff60a01b19165f556040513381527f5db9ee0a495bf2e6ff9c91a7834c1ba4fdd244a5e8aa4e537bd38aeae4b073aa90602090a1005b638dfc202b60e01b5f5260045ffd5b346101ec5760403660031901126101ec576004356001600160401b0381116101ec57610afd903690600401611514565b610b056114fe565b610b0d6118d4565b610b15611917565b610b1d6118fa565b8115610d10576001600160a01b03169182156104c057825f52600460205260ff60405f20541615610ce6575b5f5f5b838110610bd15750835f526003602052610b6b60405f20918254611818565b905560405160208082528101839052906001600160fb1b0383116101ec57816040917f4571d0946fe003029f810442d93a36f297584173bab1d3079a6c86af9b0282839460051b8091848401378101030190a260015f516020611aae5f395f51905f5255005b610bdc81858561174e565b3580151580610ccc575b610bf4575b50600101610b4c565b60019192610cc591610c96600854600560405191610c1183611609565b8483526020830190428252604084018d815260608501904382526080860192835260a08601938b8552885f528b60205260405f2096518755518b8701558a8060a01b0390511660028601908b8060a01b03166001600160601b0360a01b82541617905551600385015551600484015551151591019060ff801983541691151516179055565b875f526002602052610cab8160405f206117e4565b60085542600955610cbd600a5461180a565b600a5561180a565b9190610beb565b50805f52600160205260ff600560405f2001541615610be6565b825f52600460205260405f20600160ff19825416179055610d08600b5461180a565b600b55610b49565b63cca1f0b160e01b5f5260045ffd5b346101ec5760203660031901126101ec576001600160a01b03610d406114e8565b165f526002602052602060405f2054604051908152f35b346101ec5760603660031901126101ec576004356024356001600160401b0381116101ec57610d8a903690600401611514565b90825f52600560205260ff600660405f200154161561072357610ddd90610dce6040516020810190604435825260208152610dc6604082611624565b51902061175e565b60208151910120923691611798565b5f92825b8251851015610e0957610e01600191610dfa8786611784565b5190611a8c565b940193610de1565b81849103610e6857602091815f526007835260405f205415610e56575b6040519133917f15489fc09d672786e14f184453f1638c1af8fcdfa5215efe38b21c58e85406ef5f80a460018152f35b815f52600783528060405f2055610e26565b63582f497d60e11b5f5260045ffd5b346101ec5760603660031901126101ec576044356004356024356001600160401b0383116101ec57366023840112156101ec578260040135906001600160401b0382116101ec57602484019360248336920101116101ec57610ed76118d4565b610edf6118fa565b821561072357825f52600560205260ff600660405f200154166111a9578015610d105760405193610f0f856115ee565b83855260208501944286526040810195438752606082019633885260808301858152601f19601f8801169860405192610f4b60208c0185611624565b888452888760208601375f60208a8601015260a0860193845260c0860194600186528a5f52600560205260405f209651875551600187015551600286015560018060a01b03905116600385019060018060a01b03166001600160601b0360a01b8254161790555160048401556005830190518051906001600160401b0382116110ce57610fd883546115b6565b601f8111611158575b50602090601f83116001146110ed5791806006949261102d9796945f926110e2575b50508160011b915f199060031b1c19161790555b51151591019060ff801983541691151516179055565b60065490600160401b8210156110ce57837f608a838c0459519c7d15fc222cd914844729adab4f78fc96ccaa069568299ba0946080928761109061107a8760015f990160065560066115a1565b819391549060031b91821b915f19901b19161790565b905561109d600c5461180a565b600c5560405195865260606020870152816060870152838601378301015242604082015260808133958101030190a3005b634e487b7160e01b5f52604160045260245ffd5b015190508c80611003565b90601f19831691845f52815f20925f5b818110611140575092600192859261102d9998966006989610611128575b505050811b019055611017565b01515f1960f88460031b161c191690558c808061111b565b929360206001819287860151815501950193016110fd565b82811115610fe157835f5260205f20601f840160051c90602085106111a1575b81601f9101920160051c03905f5b828110611194575050610fe1565b5f82820155600101611186565b5f9150611178565b6351a2015960e11b5f5260045ffd5b346101ec575f3660031901126101ec576020600954604051908152f35b346101ec575f3660031901126101ec576020600b54604051908152f35b346101ec5760803660031901126101ec576004356024356001600160401b0381116101ec57611225903690600401611514565b906044356001600160401b0381116101ec57611245903690600401611514565b90916064356001600160401b0381116101ec57611266903690600401611514565b9490865f52600560205260ff600660405f2001541615610723576112898661171c565b955f5b8181106113a157505050906112a2913691611798565b906112ac81611705565b926112ba6040519485611624565b818452602084019160051b8101903682116101ec57918693918693915b81831061137b57505050926112ec929361194f565b03610e68575f5b8151811015611370578061130960019284611784565b515f52600760205260405f205415611353575b336113278285611784565b51857f15489fc09d672786e14f184453f1638c1af8fcdfa5215efe38b21c58e85406ef5f80a4016112f3565b61135d8184611784565b515f5260076020528360405f205561131c565b602060405160018152f35b919350919350823580151581036101ec57816020929183925201920186939186936112d7565b806113cc6113b2600193858761174e565b356040516020810191825260208152610dc6604082611624565b602081519101206113dd828b611784565b520161128c565b346101ec5760203660031901126101ec576004356114006118d4565b805f52600160205260ff600560405f200154161561050d575f81815260016020908152604080832060058101805460ff19169055600201546001600160a01b0316808452600390925290912054611497575b50600a5480611485575b5033907f64f22897ebaebcd39331fe5d8a1b2a4b2c821168ed20e57dc403e1f324bd6df85f80a3005b61148e906116e5565b600a558161145c565b5f52600360205260405f206114ac81546116e5565b905581611452565b346101ec5760203660031901126101ec576020906001600160a01b036114d86114e8565b165f526003825260405f20548152f35b600435906001600160a01b03821682036101ec57565b602435906001600160a01b03821682036101ec57565b9181601f840112156101ec578235916001600160401b0383116101ec576020808501948460051b0101116101ec57565b60206040818301928281528451809452019201905f5b8181106115675750505090565b825184526020938401939092019160010161155a565b805180835260209291819084018484015e5f828201840152601f01601f1916010190565b805482101561024a575f5260205f2001905f90565b90600182811c921680156115e4575b60208310146115d057565b634e487b7160e01b5f52602260045260245ffd5b91607f16916115c5565b60e081019081106001600160401b038211176110ce57604052565b60c081019081106001600160401b038211176110ce57604052565b90601f801991011681019081106001600160401b038211176110ce57604052565b9060405191825f825492611658846115b6565b80845293600181169081156116c3575060011461167f575b5061167d92500383611624565b565b90505f9291925260205f20905f915b8183106116a757505090602061167d928201015f611670565b602091935080600191548385890101520191019091849261168e565b90506020925061167d94915060ff191682840152151560051b8201015f611670565b80156116f1575f190190565b634e487b7160e01b5f52601160045260245ffd5b6001600160401b0381116110ce5760051b60200190565b9061172682611705565b6117336040519182611624565b8281528092611744601f1991611705565b0190602036910137565b919081101561024a5760051b0190565b906040519160208301526020825261167d604083611624565b80511561024a5760200190565b805182101561024a5760209160051b010190565b9291906117a481611705565b936117b26040519586611624565b602085838152019160051b81019283116101ec57905b8282106117d457505050565b81358152602091820191016117c8565b805490600160401b8210156110ce578161107a916001611806940181556115a1565b9055565b5f1981146116f15760010190565b919082018092116116f157565b6001600160a01b03165f90815260026020526040902080549192909190818410156118b857816118558286611818565b11156118b057508281039081116116f157905b6118718261171c565b925f5b838110611882575050505090565b8061189861189260019385611818565b856115a1565b90549060031b1c6118a98288611784565b5201611874565b905090611868565b505050506040516118ca602082611624565b5f81525f36813790565b5f546001600160a01b031633036118e757565b63118cdaa760e01b5f523360045260245ffd5b60ff5f5460a01c1661190857565b63d93c066560e01b5f5260045ffd5b60025f516020611aae5f395f51905f5254146119405760025f516020611aae5f395f51905f5255565b633ee5aeb560e01b5f5260045ffd5b90825191815193611961825185611818565b60018601908187116116f157036119af5761197b8561171c565b935f5f945f955f5b8981106119df575050871591506119be905057505051036119af576119ab915f190190611784565b5190565b631a8a024960e11b5f5260045ffd5b9094509092501590506119d557506119ab90611777565b6119ab9150611777565b60019085851015611a7057611a33611a006119f98761180a565b9689611784565b515b611a0c8387611784565b5115611a5d5787871015611a4457610dfa611a268861180a565b978a611784565b90611a8c565b611a3d828c611784565b5201611983565b611a57611a508661180a565b958d611784565b51611a2d565b610dfa611a698c61180a565b9b8b611784565b611a33611a86611a7f8561180a565b948c611784565b51611a02565b81811015611aa0575f5260205260405f2090565b905f5260205260405f209056fe9b779b17422d0df92223018b32b4d1fa46e071723d6817e2486d003becc55f00a2646970667358221220fb08d72a7b8b8747da5f8e5f3e69d60df7f8c05559d8b2270982be66bbccda7f64736f6c63430008210033","linkReferences":{}},"methodIdentifiers":{"allMerkleRoots(uint256)":"fe14bab0","batchVerify(bytes32[],address)":"3aab10af","getMerkleRoot(bytes32)":"a7206cd6","getMerkleRoots()":"85135a1a","getStats()":"c59d4847","getTradeCount(address)":"3a8f549e","getTradeProof(bytes32)":"7a1e5271","getUserTrades(address,uint256,uint256)":"5e7f18af","lastTradeHash()":"bc29bd60","lastTradeTimestamp()":"19f18dee","leafToRoot(bytes32)":"c54de4e9","merkleRoots(bytes32)":"fe5a5377","owner()":"8da5cb5b","pause()":"8456cb59","paused()":"5c975abb","proofs(bytes32)":"444d95b0","renounceOwnership()":"715018a6","revokeTrade(bytes32)":"0d3c6309","submitMerkleRoot(bytes32,uint256,string)":"1e5cc5f1","totalMerkleBatches()":"4611f223","totalTrades()":"e275c997","totalUniqueUsers()":"178f9993","transferOwnership(address)":"f2fde38b","unpause()":"3f4ba83a","userTradeCount(address)":"02b0bde8","userTrades(address,uint256)":"b1b1ffab","verifyMerkleMultiProof(bytes32,bytes32[],bool[],bytes32[])":"16187a48","verifyMerkleProof(bytes32,bytes32[],bytes32)":"35f0dced","verifyTrade(bytes32,address)":"e0d6aa38"},"id":29}